00COTAHIST.2023BOVESPA 20230526                                                                                                                                                                                                                      
012023010202NEOE3       010NEOENERGIA  ON      NM   R$  000000000154000000000015400000000001498000000000150800000000015030000000001503000000000150601916000000000000325000000000000490215100000000000000009999123100000010000000000000BRNEOEACNOR3117
012023010202NEXP3       010NEXPE       ON      NM   R$  000000000003100000000000310000000000029000000000002900000000000300000000000030000000000003100255000000000000197700000000000005898000000000000000009999123100000010000000000000BRNEXPACNOR0100
012023010202NGRD3       010NEOGRID     ON      NM   R$  000000000014800000000001500000000000143000000000014600000000001450000000000145000000000014601011000000000000589900000000000086150900000000000000009999123100000010000000000000BRNGRDACNOR3102
012023010202NINJ3       010GETNINJAS   ON      NM   R$  000000000027000000000002790000000000269000000000027300000000002710000000000271000000000027900421000000000000076000000000000020792600000000000000009999123100000010000000000000BRNINJACNOR5100
012023010202NORD3       010NORDON MET  ON           R$  000000000084800000000009000000000000848000000000085700000000008500000000000720000000000084900017000000000000002700000000000002314300000000000000009999123100000010000000000000BRNORDACNOR7135
012023010202TTEN3       0103TENTOS     ON      NM   R$  000000000096500000000009650000000000907000000000092300000000009360000000000935000000000093603292000000000000701700000000000648253300000000000000009999123100000010000000000000BRTTENACNOR0101
012023010202TUPY3       010TUPY        ON  EJ  NM   R$  000000000277100000000027710000000002583000000000263700000000026570000000002643000000000265703367000000000000573000000000001511380400000000000000009999123100000010000000000000BRTUPYACNOR1180
012023010202UCAS3       010UNICASA     ON      NM   R$  000000000025500000000002550000000000247000000000025000000000002490000000000248000000000025100024000000000000009600000000000002401600000000000000009999123100000010000000000000BRUCASACNOR1112
012023010202UGPA3       010ULTRAPAR    ON      NM   R$  000000000124000000000012520000000001185000000000120100000000011950000000001189000000000119510920000000000002973300000000003572179500000000000000009999123100000010000000000000BRUGPAACNOR8152
012023010202ALUP11      010ALUPAR      UNT     N2   R$  000000000279300000000028240000000002720000000000276500000000027670000000002767000000000276804721000000000000795800000000002200878800000000000000009999123100000010000000000000BRALUPCDAM15113
012023010202DMVF3       010D1000VFARMA ON      NM   R$  000000000040000000000004070000000000395000000000040200000000003990000000000399000000000040300046000000000000007500000000000003017400000000000000009999123100000010000000000000BRDMVFACNOR9100
012023010202DOHL4       010DOHLER      PN           R$  000000000042400000000004290000000000421000000000042300000000004260000000000418000000000042400012000000000000001700000000000000719600000000000000009999123100000010000000000000BRDOHLACNPR9066
012023010202DOTZ3       010DOTZ SA     ON      NM   R$  000000000012900000000001290000000000123000000000012400000000001270000000000125000000000012700114000000000000029400000000000003663800000000000000009999123100000010000000000000BRDOTZACNOR7100
012023010202DXCO3       010DEXCO       ON  EB  NM   R$  000000000066900000000006690000000000645000000000065700000000006630000000000663000000000066405512000000000001491800000000000980314700000000000000009999123100000010000000000000BRDXCOACNOR8103
012023010202EALT4       010ACO ALTONA  PN           R$  000000000067100000000006940000000000656000000000067100000000006560000000000656000000000066000164000000000000046000000000000030887600000000000000009999123100000010000000000000BREALTACNPR1136
012023010202PORT3       010WILSON SONS ON      NM   R$  000000000108200000000011020000000001058000000000106600000000010600000000001060000000000106900705000000000000115700000000000123348400000000000000009999123100000010000000000000BRPORTACNOR8103
012023010202POSI3       010POSITIVO TECON      NM   R$  000000000093900000000009400000000000866000000000088800000000008820000000000881000000000088205082000000000001761000000000001564475400000000000000009999123100000010000000000000BRPOSIACNOR9114
012023010202PRIO3       010PETRORIO    ON      NM   R$  000000000368800000000037660000000003645000000000368700000000036760000000003676000000000367924159000000000006577200000000024255931200000000000000009999123100000010000000000000BRPRIOACNOR1104
012023010202SYNE3       010SYN PROP TECON      NM   R$  000000000041300000000004130000000000400000000000040500000000004060000000000406000000000040800858000000000000857000000000000347935200000000000000009999123100000010000000000000BRSYNEACNOR2102